{
  "contractName": "VendingMachine",
  "abi": [
    {
      "inputs": [],
      "stateMutability": "nonpayable",
      "type": "constructor"
    },
    {
      "inputs": [
        {
          "internalType": "address",
          "name": "",
          "type": "address"
        }
      ],
      "name": "coffeeBalances",
      "outputs": [
        {
          "internalType": "uint256",
          "name": "",
          "type": "uint256"
        }
      ],
      "stateMutability": "view",
      "type": "function"
    },
    {
      "inputs": [],
      "name": "owner",
      "outputs": [
        {
          "internalType": "address",
          "name": "",
          "type": "address"
        }
      ],
      "stateMutability": "view",
      "type": "function"
    },
    {
      "inputs": [],
      "name": "getBalance",
      "outputs": [
        {
          "internalType": "uint256",
          "name": "",
          "type": "uint256"
        }
      ],
      "stateMutability": "view",
      "type": "function"
    },
    {
      "inputs": [
        {
          "internalType": "uint256",
          "name": "amount",
          "type": "uint256"
        }
      ],
      "name": "restock",
      "outputs": [],
      "stateMutability": "nonpayable",
      "type": "function"
    },
    {
      "inputs": [
        {
          "internalType": "uint256",
          "name": "amount",
          "type": "uint256"
        }
      ],
      "name": "purchase",
      "outputs": [],
      "stateMutability": "payable",
      "type": "function"
    }
  ],
  "bytecode": "0x608060405234801561001057600080fd5b50336000806101000a81548173ffffffffffffffffffffffffffffffffffffffff021916908373ffffffffffffffffffffffffffffffffffffffff1602179055506064600160003073ffffffffffffffffffffffffffffffffffffffff1673ffffffffffffffffffffffffffffffffffffffff16815260200190815260200160002081905550610835806100a56000396000f3fe60806040526004361061004a5760003560e01c806312065fe01461004f578063818dd5a51461007a5780638da5cb5b146100b7578063c21a702a146100e2578063efef39a11461010b575b600080fd5b34801561005b57600080fd5b50610064610127565b6040516100719190610431565b60405180910390f35b34801561008657600080fd5b506100a1600480360381019061009c91906104af565b61016e565b6040516100ae9190610431565b60405180910390f35b3480156100c357600080fd5b506100cc610186565b6040516100d991906104eb565b60405180910390f35b3480156100ee57600080fd5b5061010960048036038101906101049190610532565b6101aa565b005b61012560048036038101906101209190610532565b610291565b005b6000600160003073ffffffffffffffffffffffffffffffffffffffff1673ffffffffffffffffffffffffffffffffffffffff16815260200190815260200160002054905090565b60016020528060005260406000206000915090505481565b60008054906101000a900473ffffffffffffffffffffffffffffffffffffffff1681565b60008054906101000a900473ffffffffffffffffffffffffffffffffffffffff1673ffffffffffffffffffffffffffffffffffffffff163373ffffffffffffffffffffffffffffffffffffffff1614610238576040517f08c379a000000000000000000000000000000000000000000000000000000000815260040161022f906105e2565b60405180910390fd5b80600160003073ffffffffffffffffffffffffffffffffffffffff1673ffffffffffffffffffffffffffffffffffffffff16815260200190815260200160002060008282546102879190610631565b9250508190555050565b670de0b6b3a7640000816102a59190610665565b3410156102e7576040517f08c379a00000000000000000000000000000000000000000000000000000000081526004016102de90610719565b60405180910390fd5b80600160003073ffffffffffffffffffffffffffffffffffffffff1673ffffffffffffffffffffffffffffffffffffffff168152602001908152602001600020541015610369576040517f08c379a0000000000000000000000000000000000000000000000000000000008152600401610360906107ab565b60405180910390fd5b80600160003073ffffffffffffffffffffffffffffffffffffffff1673ffffffffffffffffffffffffffffffffffffffff16815260200190815260200160002060008282546103b891906107cb565b9250508190555080600160003373ffffffffffffffffffffffffffffffffffffffff1673ffffffffffffffffffffffffffffffffffffffff168152602001908152602001600020600082825461040e9190610631565b9250508190555050565b6000819050919050565b61042b81610418565b82525050565b60006020820190506104466000830184610422565b92915050565b600080fd5b600073ffffffffffffffffffffffffffffffffffffffff82169050919050565b600061047c82610451565b9050919050565b61048c81610471565b811461049757600080fd5b50565b6000813590506104a981610483565b92915050565b6000602082840312156104c5576104c461044c565b5b60006104d38482850161049a565b91505092915050565b6104e581610471565b82525050565b600060208201905061050060008301846104dc565b92915050565b61050f81610418565b811461051a57600080fd5b50565b60008135905061052c81610506565b92915050565b6000602082840312156105485761054761044c565b5b60006105568482850161051d565b91505092915050565b600082825260208201905092915050565b7f4f6e6c7920746865206f776e65722063616e20726573746f636b20746865206d60008201527f616368696e650000000000000000000000000000000000000000000000000000602082015250565b60006105cc60268361055f565b91506105d782610570565b604082019050919050565b600060208201905081810360008301526105fb816105bf565b9050919050565b7f4e487b7100000000000000000000000000000000000000000000000000000000600052601160045260246000fd5b600061063c82610418565b915061064783610418565b925082820190508082111561065f5761065e610602565b5b92915050565b600061067082610418565b915061067b83610418565b925082820261068981610418565b915082820484148315176106a05761069f610602565b5b5092915050565b7f596f75206d75737420706179206174206c65617374203120657468657220746f60008201527f2067657420796f757220636f6666656521000000000000000000000000000000602082015250565b600061070360318361055f565b915061070e826106a7565b604082019050919050565b60006020820190508181036000830152610732816106f6565b9050919050565b7f536f7272792c207468657265206973206e6f206d6f726520636f66666565203a60008201527f2800000000000000000000000000000000000000000000000000000000000000602082015250565b600061079560218361055f565b91506107a082610739565b604082019050919050565b600060208201905081810360008301526107c481610788565b9050919050565b60006107d682610418565b91506107e183610418565b92508282039050818111156107f9576107f8610602565b5b9291505056fea26469706673582212207e9df595ab0ff66f4285677c5a4d5e710f94ccc7fddbb3da0950781fbbe7da5664736f6c63430008110033",
  "immutableReferences": {},
  "source": "// SPDX-License-Identifier: MIT\r\npragma solidity >=0.4.25 <0.9.0;\r\n\r\ncontract VendingMachine {\r\n    address public owner; // owner of smart contract\r\n    mapping(address => uint256) public coffeeBalances;\r\n\r\n    constructor() {\r\n        owner = msg.sender; //init owner par l'adresse ethereum de celui qui a effectu la transaction/ deploy le contrat\r\n        coffeeBalances[address(this)] = 100; //init la balance du contrat courant\r\n    }\r\n\r\n    function getBalance() public view returns (uint256) {\r\n        //view => cette fonction ne va rien changer mais seulement lire les donnes\r\n        return coffeeBalances[address(this)];\r\n    }\r\n\r\n    //restock vending machine\r\n    function restock(uint256 amount) public {\r\n        // Vrifier que l'owner seul qui peut restocker\r\n        require(msg.sender == owner, \"Only the owner can restock the machine\");\r\n        coffeeBalances[address(this)] += amount;\r\n    }\r\n\r\n    function purchase(uint256 amount) public payable {\r\n        //Vrifier que le montant est suprieur ou gale au prix d'un caf\r\n        require(\r\n            msg.value >= amount * 1 ether, // msg.value => les ethers reus\r\n            \"You must pay at least 1 ether to get your coffee!\"\r\n        );\r\n\r\n        require(\r\n            coffeeBalances[address(this)] >= amount,\r\n            \"Sorry, there is no more coffee :(\"\r\n        );\r\n        //Dcrmenter la balance du contrat\r\n        coffeeBalances[address(this)] -= amount;\r\n        //Incrmenter la balance de l'acheteur\r\n        coffeeBalances[msg.sender] += amount;\r\n    }\r\n}\r\n",
  "sourcePath": "c:\\xampp\\htdocs\\VendingMachine\\contracts\\VendingMachine.sol",
  "compiler": {
    "name": "solc",
    "version": "0.8.17+commit.8df45f5f.Emscripten.clang"
  },
  "schemaVersion": "3.4.10",
  "updatedAt": "2022-11-04T20:51:33.128Z",
  "devdoc": {
    "kind": "dev",
    "methods": {},
    "version": 1
  },
  "userdoc": {
    "kind": "user",
    "methods": {},
    "version": 1
  }
}